{
  "contractName": "Kwitter",
  "abi": [
    {
      "inputs": [],
      "stateMutability": "nonpayable",
      "type": "constructor"
    },
    {
      "anonymous": false,
      "inputs": [
        {
          "indexed": false,
          "internalType": "uint256",
          "name": "id",
          "type": "uint256"
        }
      ],
      "name": "NewKweet",
      "type": "event"
    },
    {
      "anonymous": false,
      "inputs": [
        {
          "indexed": false,
          "internalType": "uint256",
          "name": "id",
          "type": "uint256"
        }
      ],
      "name": "NewVote",
      "type": "event"
    },
    {
      "inputs": [
        {
          "internalType": "address",
          "name": "",
          "type": "address"
        },
        {
          "internalType": "uint256",
          "name": "",
          "type": "uint256"
        }
      ],
      "name": "accounts",
      "outputs": [
        {
          "internalType": "uint256",
          "name": "",
          "type": "uint256"
        }
      ],
      "stateMutability": "view",
      "type": "function",
      "constant": true
    },
    {
      "inputs": [
        {
          "internalType": "address",
          "name": "",
          "type": "address"
        },
        {
          "internalType": "uint256",
          "name": "",
          "type": "uint256"
        }
      ],
      "name": "hasVoted",
      "outputs": [
        {
          "internalType": "bool",
          "name": "",
          "type": "bool"
        }
      ],
      "stateMutability": "view",
      "type": "function",
      "constant": true
    },
    {
      "inputs": [],
      "name": "kweetPrice",
      "outputs": [
        {
          "internalType": "uint256",
          "name": "",
          "type": "uint256"
        }
      ],
      "stateMutability": "view",
      "type": "function",
      "constant": true
    },
    {
      "inputs": [
        {
          "internalType": "uint256",
          "name": "",
          "type": "uint256"
        }
      ],
      "name": "kweets",
      "outputs": [
        {
          "internalType": "uint256",
          "name": "id",
          "type": "uint256"
        },
        {
          "internalType": "address payable",
          "name": "author",
          "type": "address"
        },
        {
          "internalType": "string",
          "name": "content",
          "type": "string"
        },
        {
          "internalType": "uint256",
          "name": "voteCount",
          "type": "uint256"
        },
        {
          "internalType": "uint256",
          "name": "timestamp",
          "type": "uint256"
        }
      ],
      "stateMutability": "view",
      "type": "function",
      "constant": true
    },
    {
      "inputs": [],
      "name": "owner",
      "outputs": [
        {
          "internalType": "address payable",
          "name": "",
          "type": "address"
        }
      ],
      "stateMutability": "view",
      "type": "function",
      "constant": true
    },
    {
      "inputs": [],
      "name": "totalKweets",
      "outputs": [
        {
          "internalType": "uint256",
          "name": "",
          "type": "uint256"
        }
      ],
      "stateMutability": "view",
      "type": "function",
      "constant": true
    },
    {
      "inputs": [],
      "name": "votePrice",
      "outputs": [
        {
          "internalType": "uint256",
          "name": "",
          "type": "uint256"
        }
      ],
      "stateMutability": "view",
      "type": "function",
      "constant": true
    },
    {
      "inputs": [
        {
          "internalType": "address",
          "name": "_account",
          "type": "address"
        }
      ],
      "name": "getAccountKweets",
      "outputs": [
        {
          "internalType": "uint256[]",
          "name": "",
          "type": "uint256[]"
        }
      ],
      "stateMutability": "view",
      "type": "function",
      "constant": true
    },
    {
      "inputs": [
        {
          "internalType": "string",
          "name": "_content",
          "type": "string"
        }
      ],
      "name": "kweet",
      "outputs": [],
      "stateMutability": "payable",
      "type": "function",
      "payable": true
    },
    {
      "inputs": [
        {
          "internalType": "uint256",
          "name": "_id",
          "type": "uint256"
        }
      ],
      "name": "vote",
      "outputs": [],
      "stateMutability": "payable",
      "type": "function",
      "payable": true
    },
    {
      "inputs": [
        {
          "internalType": "uint256",
          "name": "_id",
          "type": "uint256"
        }
      ],
      "name": "deleteKweet",
      "outputs": [],
      "stateMutability": "nonpayable",
      "type": "function"
    },
    {
      "inputs": [],
      "name": "withdraw",
      "outputs": [],
      "stateMutability": "nonpayable",
      "type": "function"
    }
  ],
  "bytecode": "0x60806040526000600155662386f26fc1000060025566071afd498d000060035534801561002b57600080fd5b50600080546001600160a01b03191633179055610eca8061004d6000396000f3fe6080604052600436106100a75760003560e01c8063860c851a11610064578063860c851a1461018e57806387524581146101a45780638da5cb5b146101c4578063a03c9f30146101fc578063e193aa351461021c578063eaf76b291461023257600080fd5b80630121b93f146100ac578063395e1595146100c15780633ccfd60b146100d457806342545825146100e95780634e8a69b8146101395780636da8ef151461016a575b600080fd5b6100bf6100ba366004610b78565b61025f565b005b6100bf6100cf366004610ba7565b610691565b3480156100e057600080fd5b506100bf610863565b3480156100f557600080fd5b50610124610104366004610c74565b600660209081526000928352604080842090915290825290205460ff1681565b60405190151581526020015b60405180910390f35b34801561014557600080fd5b50610159610154366004610b78565b6108dd565b604051610130959493929190610c9e565b34801561017657600080fd5b5061018060025481565b604051908152602001610130565b34801561019a57600080fd5b5061018060035481565b3480156101b057600080fd5b506101806101bf366004610c74565b61099e565b3480156101d057600080fd5b506000546101e4906001600160a01b031681565b6040516001600160a01b039091168152602001610130565b34801561020857600080fd5b506100bf610217366004610b78565b6109cf565b34801561022857600080fd5b5061018060015481565b34801561023e57600080fd5b5061025261024d366004610d19565b610a3d565b6040516101309190610d3b565b600354803410156102b75760405162461bcd60e51b815260206004820152601c60248201527f4e6f7420656e6f75676820457468657265756d2070726f76696465640000000060448201526064015b60405180910390fd5b60008281526004602052604090205480158015906102d757506001548111155b6103235760405162461bcd60e51b815260206004820152601960248201527f546865206b77656574206964206973206e6f742076616c69640000000000000060448201526064016102ae565b600083815260046020526040902060010154336001600160a01b03909116036103a15760405162461bcd60e51b815260206004820152602a60248201527f546865206b7765657420617574686f722063616e6e6f7420766f746520686973604482015269081bdddb881addd9595d60b21b60648201526084016102ae565b33600090815260066020908152604080832086845290915290205460ff161561041c5760405162461bcd60e51b815260206004820152602760248201527f45616368206163636f756e742063616e206f6e6c7920766f74652061206b77656044820152666574206f6e636560c81b60648201526084016102ae565b6000838152600460209081526040808320815160a0810183528154815260018201546001600160a01b031693810193909352600281018054919284019161046290610d7f565b80601f016020809104026020016040519081016040528092919081815260200182805461048e90610d7f565b80156104db5780601f106104b0576101008083540402835291602001916104db565b820191906000526020600020905b8154815290600101906020018083116104be57829003601f168201915b50505091835250506003820154602082015260049091015460409091015260608101805191925061050b82610dcf565b90525060008481526004602090815260409182902083518155838201516001820180546001600160a01b0319166001600160a01b03909216919091179055918301518051849392610563926002850192910190610aa9565b5060608281015160038301556080909201516004909101553360009081526006602090815260408083208884529091529020805460ff19166001179055810151158015906105bf5750600a81606001516105bd9190610dfe565b155b156106585780602001516001600160a01b03166108fc60035460086105e49190610e12565b6040518115909202916000818181858888f1935050505015801561060c573d6000803e3d6000fd5b506000546003546001600160a01b03909116906108fc9061062e906001610e12565b6040518115909202916000818181858888f19350505050158015610656573d6000803e3d6000fd5b505b6040518481527f89b1d6344c948134ebf34cc76a259a80dcf351c264adba174b6ccad8a7ce797d9060200160405180910390a150505050565b600254803410156106e45760405162461bcd60e51b815260206004820152601c60248201527f4e6f7420656e6f75676820457468657265756d2070726f76696465640000000060448201526064016102ae565b81600081511180156106f95750610100815111155b61075c5760405162461bcd60e51b815260206004820152602e60248201527f45616368206b776565742073686f756c642068617665206265747765656e203160448201526d20616e642032353620627974657360901b60648201526084016102ae565b6001805490600061076c83610dcf565b90915550506040805160a08101825260018054808352336020808501918252848601898152600060608701819052426080880152938452600482529590922084518155905192810180546001600160a01b0319166001600160a01b039094169390931790925592518051929391926107ea9260028501920190610aa9565b506060820151600382015560809091015160049091015533600090815260056020908152604080832060018054825480830184559286529484902090910193909355915491519182527f427e2517c94815f2a42aa89186333102c70fe30da4cf7f34fb08cdf371acf321910160405180910390a1505050565b6000546001600160a01b0316331461088d5760405162461bcd60e51b81526004016102ae90610e31565b6000546001600160a01b03166108fc6108a7606447610e80565b6108b290605f610e12565b6040518115909202916000818181858888f193505050501580156108da573d6000803e3d6000fd5b50565b60046020526000908152604090208054600182015460028301805492936001600160a01b039092169261090f90610d7f565b80601f016020809104026020016040519081016040528092919081815260200182805461093b90610d7f565b80156109885780601f1061095d57610100808354040283529160200191610988565b820191906000526020600020905b81548152906001019060200180831161096b57829003601f168201915b5050505050908060030154908060040154905085565b600560205281600052604060002081815481106109ba57600080fd5b90600052602060002001600091509150505481565b6000546001600160a01b031633146109f95760405162461bcd60e51b81526004016102ae90610e31565b60008181526004602052604081208181556001810180546001600160a01b031916905590610a2a6002830182610b2d565b5060006003820181905560049091015550565b6001600160a01b038116600090815260056020908152604091829020805483518184028101840190945280845260609392830182828015610a9d57602002820191906000526020600020905b815481526020019060010190808311610a89575b50505050509050919050565b828054610ab590610d7f565b90600052602060002090601f016020900481019282610ad75760008555610b1d565b82601f10610af057805160ff1916838001178555610b1d565b82800160010185558215610b1d579182015b82811115610b1d578251825591602001919060010190610b02565b50610b29929150610b63565b5090565b508054610b3990610d7f565b6000825580601f10610b49575050565b601f0160209004906000526020600020908101906108da91905b5b80821115610b295760008155600101610b64565b600060208284031215610b8a57600080fd5b5035919050565b634e487b7160e01b600052604160045260246000fd5b600060208284031215610bb957600080fd5b813567ffffffffffffffff80821115610bd157600080fd5b818401915084601f830112610be557600080fd5b813581811115610bf757610bf7610b91565b604051601f8201601f19908116603f01168101908382118183101715610c1f57610c1f610b91565b81604052828152876020848701011115610c3857600080fd5b826020860160208301376000928101602001929092525095945050505050565b80356001600160a01b0381168114610c6f57600080fd5b919050565b60008060408385031215610c8757600080fd5b610c9083610c58565b946020939093013593505050565b8581526000602060018060a01b0387168184015260a0604084015285518060a085015260005b81811015610ce05787810183015185820160c001528201610cc4565b81811115610cf257600060c083870101525b5060608401959095525050608081019190915260c0601f909201601f191601019392505050565b600060208284031215610d2b57600080fd5b610d3482610c58565b9392505050565b6020808252825182820181905260009190848201906040850190845b81811015610d7357835183529284019291840191600101610d57565b50909695505050505050565b600181811c90821680610d9357607f821691505b602082108103610db357634e487b7160e01b600052602260045260246000fd5b50919050565b634e487b7160e01b600052601160045260246000fd5b600060018201610de157610de1610db9565b5060010190565b634e487b7160e01b600052601260045260246000fd5b600082610e0d57610e0d610de8565b500690565b6000816000190483118215151615610e2c57610e2c610db9565b500290565b6020808252602f908201527f4f6e6c792074686520636f6e7472616374206f776e65722063616e207065726660408201526e37b936903a3434b99030b1ba34b7b760891b606082015260800190565b600082610e8f57610e8f610de8565b50049056fea2646970667358221220068085f42693d631bf4c1303ec5d1725af6dff0c58383f584f2f6e0b4f5456e864736f6c634300080d0033",
  "immutableReferences": {},
  "source": "// SPDX-License-Identifier: MIT\npragma solidity ^0.8.12;\n\n/* ====================================================================== */\n/*  88      a8P                  88                    kwitter.ndavd.com  */\n/*  88    ,88'                   \"\"   ,d      ,d                          */\n/*  88  ,88\"                          88      88                          */\n/*  88,d88'   8b      db      d8 88 MM88MMM MM88MMM ,adPPYba, 8b,dPPYba,  */\n/*  8888\"88,  `8b    d88b    d8' 88   88      88   a8P_____88 88P'   \"Y8  */\n/*  88P   Y8b  `8b  d8'`8b  d8'  88   88      88   8PP\"\"\"\"\"\"\" 88          */\n/*  88     \"88, `8bd8'  `8bd8'   88   88,     88,  \"8b,   ,aa 88          */\n/*  88       Y8b  YP      YP     88   \"Y888   \"Y888 `\"Ybbd8\"' 88          */\n/* ====================================================================== */\n\ncontract Kwitter {\n  // Contract owner\n  address payable public owner;\n  // Kweet count\n  uint public totalKweets = 0;\n  // Prices charged\n  uint public kweetPrice = 0.01 ether;\n  uint public votePrice = 0.002 ether;\n  // Kweet getter by id (uint)\n  mapping(uint => Kweet) public kweets;\n  // Each account (address) is comprised of an array of kweets (uint)\n  mapping(address => uint[]) public accounts;\n  // Keep track of whether the account (address) has voted (bool) on a post (uint)\n  mapping(address => mapping(uint => bool)) public hasVoted;\n\n  struct Kweet {\n    uint id;\n    address payable author;\n    string content;\n    uint voteCount;\n    uint timestamp;\n  }\n\n  event NewKweet(\n    uint id\n  );\n\n  event NewVote(\n    uint id\n  );\n\n  modifier onlyOwner {\n    require(\n      msg.sender == owner,\n      \"Only the contract owner can perform this action\"\n    );\n    _;\n  }\n\n  modifier costs(uint amount) {\n    require(\n      msg.value >= amount,\n      \"Not enough Ethereum provided\"\n    );\n    _;\n  }\n\n  modifier hasValidLength(string memory _content) {\n    require(\n      bytes(_content).length > 0 && bytes(_content).length <= 256,\n      \"Each kweet should have between 1 and 256 bytes\"\n    );\n    _;\n  }\n\n  modifier hasValidId(uint _id) {\n    require(\n      _id > 0 && _id <= totalKweets,\n      \"The kweet id is not valid\"\n    );\n    _;\n  }\n\n  constructor() {\n    owner = payable(msg.sender);\n  }\n\n  function getAccountKweets(address _account) public view returns(uint[] memory) {\n    return accounts[_account];\n  }\n\n  function kweet(string memory _content) public payable\n    costs(kweetPrice)\n    hasValidLength(_content)\n  {\n    totalKweets++;\n\n    kweets[totalKweets] = Kweet(\n      totalKweets,\n      payable(msg.sender),\n      _content,\n      0,\n      block.timestamp\n    );\n    accounts[msg.sender].push(totalKweets);\n\n    emit NewKweet(totalKweets);\n  }\n\n  function vote(uint _id) public payable\n    costs(votePrice)\n    hasValidId(kweets[_id].id)\n  {\n    require(\n      kweets[_id].author != msg.sender,\n      \"The kweet author cannot vote his own kweet\"\n    );\n    require(\n      !hasVoted[msg.sender][_id],\n      \"Each account can only vote a kweet once\"\n    );\n\n    Kweet memory _kweet = kweets[_id];\n    _kweet.voteCount++;\n    kweets[_id] = _kweet;\n\n    hasVoted[msg.sender][_id] = true;\n\n    // Every 10 kweet votes reward its author\n    // (and give the contract owner a small gift :])\n    if (_kweet.voteCount != 0 && _kweet.voteCount % 10 == 0) {\n      (_kweet.author).transfer(votePrice * 8);\n      owner.transfer(votePrice * 1);\n    }\n\n    emit NewVote(_id);\n  }\n\n  // Just a basic way for the owner to moderate the feed.\n  // Meant to be used only in extreme cases.\n  function deleteKweet(uint _id) public onlyOwner {\n    delete kweets[_id];\n  }\n\n  // Transfers 95% of the contract's balance to the owner.\n  // Not meant to be used.\n  function withdraw() public onlyOwner {\n    owner.transfer((address(this).balance / 100) * 95);\n  }\n}\n",
  "sourcePath": "/home/ndavid/projects/solidity/kwitter-dapp/src/contracts/Kwitter.sol",
  "compiler": {
    "name": "solc",
    "version": "0.8.13+commit.abaa5c0e.Emscripten.clang"
  },
  "schemaVersion": "3.4.6",
  "updatedAt": "2022-03-20T22:40:26.240Z",
  "networkType": "ethereum",
  "devdoc": {
    "kind": "dev",
    "methods": {},
    "version": 1
  },
  "userdoc": {
    "kind": "user",
    "methods": {},
    "version": 1
  }
}